{
	"contracts/StructMappingExample.sol": {
		"StractMappingExample": {
			"abi": [
				{
					"inputs": [
						{
							"internalType": "address",
							"name": "",
							"type": "address"
						}
					],
					"name": "balanceLogs",
					"outputs": [
						{
							"internalType": "uint256",
							"name": "totalBalance",
							"type": "uint256"
						},
						{
							"internalType": "uint256",
							"name": "depositIdx",
							"type": "uint256"
						},
						{
							"internalType": "uint256",
							"name": "withdrawalIdx",
							"type": "uint256"
						}
					],
					"stateMutability": "view",
					"type": "function"
				},
				{
					"inputs": [],
					"name": "deposit",
					"outputs": [],
					"stateMutability": "payable",
					"type": "function"
				},
				{
					"inputs": [],
					"name": "getBalance",
					"outputs": [
						{
							"internalType": "uint256",
							"name": "",
							"type": "uint256"
						}
					],
					"stateMutability": "view",
					"type": "function"
				},
				{
					"inputs": [
						{
							"internalType": "address payable",
							"name": "_to",
							"type": "address"
						},
						{
							"internalType": "uint256",
							"name": "_amount",
							"type": "uint256"
						}
					],
					"name": "withdraw",
					"outputs": [],
					"stateMutability": "payable",
					"type": "function"
				}
			],
			"devdoc": {
				"kind": "dev",
				"methods": {},
				"version": 1
			},
			"evm": {
				"assembly": "    /* \"contracts/StructMappingExample.sol\":57:1378  contract StractMappingExample{... */\n  mstore(0x40, 0x80)\n  callvalue\n  dup1\n  iszero\n  tag_1\n  jumpi\n  0x00\n  dup1\n  revert\ntag_1:\n  pop\n  dataSize(sub_0)\n  dup1\n  dataOffset(sub_0)\n  0x00\n  codecopy\n  0x00\n  return\nstop\n\nsub_0: assembly {\n        /* \"contracts/StructMappingExample.sol\":57:1378  contract StractMappingExample{... */\n      mstore(0x40, 0x80)\n      jumpi(tag_1, lt(calldatasize, 0x04))\n      shr(0xe0, calldataload(0x00))\n      dup1\n      0x12065fe0\n      eq\n      tag_2\n      jumpi\n      dup1\n      0x91617ff5\n      eq\n      tag_3\n      jumpi\n      dup1\n      0xd0e30db0\n      eq\n      tag_4\n      jumpi\n      dup1\n      0xf3fef3a3\n      eq\n      tag_5\n      jumpi\n    tag_1:\n      0x00\n      dup1\n      revert\n        /* \"contracts/StructMappingExample.sol\":436:543  function getBalance() view public returns(uint){... */\n    tag_2:\n      callvalue\n      dup1\n      iszero\n      tag_6\n      jumpi\n      0x00\n      dup1\n      revert\n    tag_6:\n      pop\n      tag_7\n      tag_8\n      jump\t// in\n    tag_7:\n      mload(0x40)\n      tag_9\n      swap2\n      swap1\n      tag_10\n      jump\t// in\n    tag_9:\n      mload(0x40)\n      dup1\n      swap2\n      sub\n      swap1\n      return\n        /* \"contracts/StructMappingExample.sol\":379:429  mapping(address => BalanceInfo)public  balanceLogs */\n    tag_3:\n      callvalue\n      dup1\n      iszero\n      tag_11\n      jumpi\n      0x00\n      dup1\n      revert\n    tag_11:\n      pop\n      tag_12\n      0x04\n      dup1\n      calldatasize\n      sub\n      dup2\n      add\n      swap1\n      tag_13\n      swap2\n      swap1\n      tag_14\n      jump\t// in\n    tag_13:\n      tag_15\n      jump\t// in\n    tag_12:\n      mload(0x40)\n      tag_16\n      swap4\n      swap3\n      swap2\n      swap1\n      tag_17\n      jump\t// in\n    tag_16:\n      mload(0x40)\n      dup1\n      swap2\n      sub\n      swap1\n      return\n        /* \"contracts/StructMappingExample.sol\":550:922  function deposit() payable public {... */\n    tag_4:\n      tag_18\n      tag_19\n      jump\t// in\n    tag_18:\n      stop\n        /* \"contracts/StructMappingExample.sol\":928:1376  function withdraw(address payable _to,uint _amount) payable public{... */\n    tag_5:\n      tag_20\n      0x04\n      dup1\n      calldatasize\n      sub\n      dup2\n      add\n      swap1\n      tag_21\n      swap2\n      swap1\n      tag_22\n      jump\t// in\n    tag_21:\n      tag_23\n      jump\t// in\n    tag_20:\n      stop\n        /* \"contracts/StructMappingExample.sol\":436:543  function getBalance() view public returns(uint){... */\n    tag_8:\n        /* \"contracts/StructMappingExample.sol\":478:482  uint */\n      0x00\n        /* \"contracts/StructMappingExample.sol\":500:511  balanceLogs */\n      dup1\n        /* \"contracts/StructMappingExample.sol\":500:523  balanceLogs[msg.sender] */\n      0x00\n        /* \"contracts/StructMappingExample.sol\":512:522  msg.sender */\n      caller\n        /* \"contracts/StructMappingExample.sol\":500:523  balanceLogs[msg.sender] */\n      0xffffffffffffffffffffffffffffffffffffffff\n      and\n      0xffffffffffffffffffffffffffffffffffffffff\n      and\n      dup2\n      mstore\n      0x20\n      add\n      swap1\n      dup2\n      mstore\n      0x20\n      add\n      0x00\n      keccak256\n        /* \"contracts/StructMappingExample.sol\":500:536  balanceLogs[msg.sender].totalBalance */\n      0x00\n      add\n      sload\n        /* \"contracts/StructMappingExample.sol\":493:536  return balanceLogs[msg.sender].totalBalance */\n      swap1\n      pop\n        /* \"contracts/StructMappingExample.sol\":436:543  function getBalance() view public returns(uint){... */\n      swap1\n      jump\t// out\n        /* \"contracts/StructMappingExample.sol\":379:429  mapping(address => BalanceInfo)public  balanceLogs */\n    tag_15:\n      mstore(0x20, 0x00)\n      dup1\n      0x00\n      mstore\n      keccak256(0x00, 0x40)\n      0x00\n      swap2\n      pop\n      swap1\n      pop\n      dup1\n      0x00\n      add\n      sload\n      swap1\n      dup1\n      0x01\n      add\n      sload\n      swap1\n      dup1\n      0x03\n      add\n      sload\n      swap1\n      pop\n      dup4\n      jump\t// out\n        /* \"contracts/StructMappingExample.sol\":550:922  function deposit() payable public {... */\n    tag_19:\n        /* \"contracts/StructMappingExample.sol\":634:643  msg.value */\n      callvalue\n        /* \"contracts/StructMappingExample.sol\":594:605  balanceLogs */\n      0x00\n        /* \"contracts/StructMappingExample.sol\":594:617  balanceLogs[msg.sender] */\n      dup1\n        /* \"contracts/StructMappingExample.sol\":606:616  msg.sender */\n      caller\n        /* \"contracts/StructMappingExample.sol\":594:617  balanceLogs[msg.sender] */\n      0xffffffffffffffffffffffffffffffffffffffff\n      and\n      0xffffffffffffffffffffffffffffffffffffffff\n      and\n      dup2\n      mstore\n      0x20\n      add\n      swap1\n      dup2\n      mstore\n      0x20\n      add\n      0x00\n      keccak256\n        /* \"contracts/StructMappingExample.sol\":594:630  balanceLogs[msg.sender].totalBalance */\n      0x00\n      add\n      0x00\n        /* \"contracts/StructMappingExample.sol\":594:643  balanceLogs[msg.sender].totalBalance += msg.value */\n      dup3\n      dup3\n      sload\n      tag_26\n      swap2\n      swap1\n      tag_27\n      jump\t// in\n    tag_26:\n      swap3\n      pop\n      pop\n      dup2\n      swap1\n      sstore\n      pop\n        /* \"contracts/StructMappingExample.sol\":653:689  Transaction memory deposiTransaction */\n      0x00\n        /* \"contracts/StructMappingExample.sol\":692:730  Transaction(msg.value,block.timestamp) */\n      mload(0x40)\n      dup1\n      0x40\n      add\n      0x40\n      mstore\n      dup1\n        /* \"contracts/StructMappingExample.sol\":704:713  msg.value */\n      callvalue\n        /* \"contracts/StructMappingExample.sol\":692:730  Transaction(msg.value,block.timestamp) */\n      dup2\n      mstore\n      0x20\n      add\n        /* \"contracts/StructMappingExample.sol\":714:729  block.timestamp */\n      timestamp\n        /* \"contracts/StructMappingExample.sol\":692:730  Transaction(msg.value,block.timestamp) */\n      dup2\n      mstore\n      pop\n        /* \"contracts/StructMappingExample.sol\":653:730  Transaction memory deposiTransaction = Transaction(msg.value,block.timestamp) */\n      swap1\n      pop\n        /* \"contracts/StructMappingExample.sol\":740:755  uint depositIdx */\n      0x00\n        /* \"contracts/StructMappingExample.sol\":758:769  balanceLogs */\n      dup1\n        /* \"contracts/StructMappingExample.sol\":758:781  balanceLogs[msg.sender] */\n      0x00\n        /* \"contracts/StructMappingExample.sol\":770:780  msg.sender */\n      caller\n        /* \"contracts/StructMappingExample.sol\":758:781  balanceLogs[msg.sender] */\n      0xffffffffffffffffffffffffffffffffffffffff\n      and\n      0xffffffffffffffffffffffffffffffffffffffff\n      and\n      dup2\n      mstore\n      0x20\n      add\n      swap1\n      dup2\n      mstore\n      0x20\n      add\n      0x00\n      keccak256\n        /* \"contracts/StructMappingExample.sol\":758:792  balanceLogs[msg.sender].depositIdx */\n      0x01\n      add\n      sload\n        /* \"contracts/StructMappingExample.sol\":740:792  uint depositIdx = balanceLogs[msg.sender].depositIdx */\n      swap1\n      pop\n        /* \"contracts/StructMappingExample.sol\":852:869  deposiTransaction */\n      dup2\n        /* \"contracts/StructMappingExample.sol\":802:813  balanceLogs */\n      0x00\n        /* \"contracts/StructMappingExample.sol\":802:825  balanceLogs[msg.sender] */\n      dup1\n        /* \"contracts/StructMappingExample.sol\":814:824  msg.sender */\n      caller\n        /* \"contracts/StructMappingExample.sol\":802:825  balanceLogs[msg.sender] */\n      0xffffffffffffffffffffffffffffffffffffffff\n      and\n      0xffffffffffffffffffffffffffffffffffffffff\n      and\n      dup2\n      mstore\n      0x20\n      add\n      swap1\n      dup2\n      mstore\n      0x20\n      add\n      0x00\n      keccak256\n        /* \"contracts/StructMappingExample.sol\":802:837  balanceLogs[msg.sender].depositLogs */\n      0x02\n      add\n        /* \"contracts/StructMappingExample.sol\":802:849  balanceLogs[msg.sender].depositLogs[depositIdx] */\n      0x00\n        /* \"contracts/StructMappingExample.sol\":838:848  depositIdx */\n      dup4\n        /* \"contracts/StructMappingExample.sol\":802:849  balanceLogs[msg.sender].depositLogs[depositIdx] */\n      dup2\n      mstore\n      0x20\n      add\n      swap1\n      dup2\n      mstore\n      0x20\n      add\n      0x00\n      keccak256\n        /* \"contracts/StructMappingExample.sol\":802:869  balanceLogs[msg.sender].depositLogs[depositIdx] = deposiTransaction */\n      0x00\n      dup3\n      add\n      mload\n      dup2\n      0x00\n      add\n      sstore\n      0x20\n      dup3\n      add\n      mload\n      dup2\n      0x01\n      add\n      sstore\n      swap1\n      pop\n      pop\n        /* \"contracts/StructMappingExample.sol\":879:890  balanceLogs */\n      0x00\n        /* \"contracts/StructMappingExample.sol\":879:902  balanceLogs[msg.sender] */\n      dup1\n        /* \"contracts/StructMappingExample.sol\":891:901  msg.sender */\n      caller\n        /* \"contracts/StructMappingExample.sol\":879:902  balanceLogs[msg.sender] */\n      0xffffffffffffffffffffffffffffffffffffffff\n      and\n      0xffffffffffffffffffffffffffffffffffffffff\n      and\n      dup2\n      mstore\n      0x20\n      add\n      swap1\n      dup2\n      mstore\n      0x20\n      add\n      0x00\n      keccak256\n        /* \"contracts/StructMappingExample.sol\":879:913  balanceLogs[msg.sender].depositIdx */\n      0x01\n      add\n      0x00\n        /* \"contracts/StructMappingExample.sol\":879:915  balanceLogs[msg.sender].depositIdx++ */\n      dup2\n      sload\n      dup1\n      swap3\n      swap2\n      swap1\n      tag_28\n      swap1\n      tag_29\n      jump\t// in\n    tag_28:\n      swap2\n      swap1\n      pop\n      sstore\n      pop\n        /* \"contracts/StructMappingExample.sol\":584:922  {... */\n      pop\n      pop\n        /* \"contracts/StructMappingExample.sol\":550:922  function deposit() payable public {... */\n      jump\t// out\n        /* \"contracts/StructMappingExample.sol\":928:1376  function withdraw(address payable _to,uint _amount) payable public{... */\n    tag_23:\n        /* \"contracts/StructMappingExample.sol\":1043:1050  _amount */\n      dup1\n        /* \"contracts/StructMappingExample.sol\":1003:1014  balanceLogs */\n      0x00\n        /* \"contracts/StructMappingExample.sol\":1003:1026  balanceLogs[msg.sender] */\n      dup1\n        /* \"contracts/StructMappingExample.sol\":1015:1025  msg.sender */\n      caller\n        /* \"contracts/StructMappingExample.sol\":1003:1026  balanceLogs[msg.sender] */\n      0xffffffffffffffffffffffffffffffffffffffff\n      and\n      0xffffffffffffffffffffffffffffffffffffffff\n      and\n      dup2\n      mstore\n      0x20\n      add\n      swap1\n      dup2\n      mstore\n      0x20\n      add\n      0x00\n      keccak256\n        /* \"contracts/StructMappingExample.sol\":1003:1039  balanceLogs[msg.sender].totalBalance */\n      0x00\n      add\n      0x00\n        /* \"contracts/StructMappingExample.sol\":1003:1050  balanceLogs[msg.sender].totalBalance -= _amount */\n      dup3\n      dup3\n      sload\n      tag_31\n      swap2\n      swap1\n      tag_32\n      jump\t// in\n    tag_31:\n      swap3\n      pop\n      pop\n      dup2\n      swap1\n      sstore\n      pop\n        /* \"contracts/StructMappingExample.sol\":1060:1098  Transaction memory withdrawTransaction */\n      0x00\n        /* \"contracts/StructMappingExample.sol\":1101:1139  Transaction(msg.value,block.timestamp) */\n      mload(0x40)\n      dup1\n      0x40\n      add\n      0x40\n      mstore\n      dup1\n        /* \"contracts/StructMappingExample.sol\":1113:1122  msg.value */\n      callvalue\n        /* \"contracts/StructMappingExample.sol\":1101:1139  Transaction(msg.value,block.timestamp) */\n      dup2\n      mstore\n      0x20\n      add\n        /* \"contracts/StructMappingExample.sol\":1123:1138  block.timestamp */\n      timestamp\n        /* \"contracts/StructMappingExample.sol\":1101:1139  Transaction(msg.value,block.timestamp) */\n      dup2\n      mstore\n      pop\n        /* \"contracts/StructMappingExample.sol\":1060:1139  Transaction memory withdrawTransaction = Transaction(msg.value,block.timestamp) */\n      swap1\n      pop\n        /* \"contracts/StructMappingExample.sol\":1149:1167  uint withdrawalIdx */\n      0x00\n        /* \"contracts/StructMappingExample.sol\":1170:1181  balanceLogs */\n      dup1\n        /* \"contracts/StructMappingExample.sol\":1170:1193  balanceLogs[msg.sender] */\n      0x00\n        /* \"contracts/StructMappingExample.sol\":1182:1192  msg.sender */\n      caller\n        /* \"contracts/StructMappingExample.sol\":1170:1193  balanceLogs[msg.sender] */\n      0xffffffffffffffffffffffffffffffffffffffff\n      and\n      0xffffffffffffffffffffffffffffffffffffffff\n      and\n      dup2\n      mstore\n      0x20\n      add\n      swap1\n      dup2\n      mstore\n      0x20\n      add\n      0x00\n      keccak256\n        /* \"contracts/StructMappingExample.sol\":1170:1207  balanceLogs[msg.sender].withdrawalIdx */\n      0x03\n      add\n      sload\n        /* \"contracts/StructMappingExample.sol\":1149:1207  uint withdrawalIdx = balanceLogs[msg.sender].withdrawalIdx */\n      swap1\n      pop\n        /* \"contracts/StructMappingExample.sol\":1270:1289  withdrawTransaction */\n      dup2\n        /* \"contracts/StructMappingExample.sol\":1217:1228  balanceLogs */\n      0x00\n        /* \"contracts/StructMappingExample.sol\":1217:1240  balanceLogs[msg.sender] */\n      dup1\n        /* \"contracts/StructMappingExample.sol\":1229:1239  msg.sender */\n      caller\n        /* \"contracts/StructMappingExample.sol\":1217:1240  balanceLogs[msg.sender] */\n      0xffffffffffffffffffffffffffffffffffffffff\n      and\n      0xffffffffffffffffffffffffffffffffffffffff\n      and\n      dup2\n      mstore\n      0x20\n      add\n      swap1\n      dup2\n      mstore\n      0x20\n      add\n      0x00\n      keccak256\n        /* \"contracts/StructMappingExample.sol\":1217:1252  balanceLogs[msg.sender].depositLogs */\n      0x02\n      add\n        /* \"contracts/StructMappingExample.sol\":1217:1267  balanceLogs[msg.sender].depositLogs[withdrawalIdx] */\n      0x00\n        /* \"contracts/StructMappingExample.sol\":1253:1266  withdrawalIdx */\n      dup4\n        /* \"contracts/StructMappingExample.sol\":1217:1267  balanceLogs[msg.sender].depositLogs[withdrawalIdx] */\n      dup2\n      mstore\n      0x20\n      add\n      swap1\n      dup2\n      mstore\n      0x20\n      add\n      0x00\n      keccak256\n        /* \"contracts/StructMappingExample.sol\":1217:1289  balanceLogs[msg.sender].depositLogs[withdrawalIdx] = withdrawTransaction */\n      0x00\n      dup3\n      add\n      mload\n      dup2\n      0x00\n      add\n      sstore\n      0x20\n      dup3\n      add\n      mload\n      dup2\n      0x01\n      add\n      sstore\n      swap1\n      pop\n      pop\n        /* \"contracts/StructMappingExample.sol\":1299:1310  balanceLogs */\n      0x00\n        /* \"contracts/StructMappingExample.sol\":1299:1322  balanceLogs[msg.sender] */\n      dup1\n        /* \"contracts/StructMappingExample.sol\":1311:1321  msg.sender */\n      caller\n        /* \"contracts/StructMappingExample.sol\":1299:1322  balanceLogs[msg.sender] */\n      0xffffffffffffffffffffffffffffffffffffffff\n      and\n      0xffffffffffffffffffffffffffffffffffffffff\n      and\n      dup2\n      mstore\n      0x20\n      add\n      swap1\n      dup2\n      mstore\n      0x20\n      add\n      0x00\n      keccak256\n        /* \"contracts/StructMappingExample.sol\":1299:1336  balanceLogs[msg.sender].withdrawalIdx */\n      0x03\n      add\n      0x00\n        /* \"contracts/StructMappingExample.sol\":1299:1338  balanceLogs[msg.sender].withdrawalIdx++ */\n      dup2\n      sload\n      dup1\n      swap3\n      swap2\n      swap1\n      tag_33\n      swap1\n      tag_29\n      jump\t// in\n    tag_33:\n      swap2\n      swap1\n      pop\n      sstore\n      pop\n        /* \"contracts/StructMappingExample.sol\":1348:1351  _to */\n      dup4\n        /* \"contracts/StructMappingExample.sol\":1348:1360  _to.transfer */\n      0xffffffffffffffffffffffffffffffffffffffff\n      and\n        /* \"contracts/StructMappingExample.sol\":1348:1369  _to.transfer(_amount) */\n      0x08fc\n        /* \"contracts/StructMappingExample.sol\":1361:1368  _amount */\n      dup5\n        /* \"contracts/StructMappingExample.sol\":1348:1369  _to.transfer(_amount) */\n      swap1\n      dup2\n      iszero\n      mul\n      swap1\n      mload(0x40)\n      0x00\n      mload(0x40)\n      dup1\n      dup4\n      sub\n      dup2\n      dup6\n      dup9\n      dup9\n      call\n      swap4\n      pop\n      pop\n      pop\n      pop\n      iszero\n      dup1\n      iszero\n      tag_35\n      jumpi\n      returndatasize\n      0x00\n      dup1\n      returndatacopy\n      revert(0x00, returndatasize)\n    tag_35:\n      pop\n        /* \"contracts/StructMappingExample.sol\":994:1376  {... */\n      pop\n      pop\n        /* \"contracts/StructMappingExample.sol\":928:1376  function withdraw(address payable _to,uint _amount) payable public{... */\n      pop\n      pop\n      jump\t// out\n        /* \"#utility.yul\":7:84   */\n    tag_36:\n        /* \"#utility.yul\":44:51   */\n      0x00\n        /* \"#utility.yul\":73:78   */\n      dup2\n        /* \"#utility.yul\":62:78   */\n      swap1\n      pop\n        /* \"#utility.yul\":7:84   */\n      swap2\n      swap1\n      pop\n      jump\t// out\n        /* \"#utility.yul\":90:208   */\n    tag_37:\n        /* \"#utility.yul\":177:201   */\n      tag_54\n        /* \"#utility.yul\":195:200   */\n      dup2\n        /* \"#utility.yul\":177:201   */\n      tag_36\n      jump\t// in\n    tag_54:\n        /* \"#utility.yul\":172:175   */\n      dup3\n        /* \"#utility.yul\":165:202   */\n      mstore\n        /* \"#utility.yul\":90:208   */\n      pop\n      pop\n      jump\t// out\n        /* \"#utility.yul\":214:436   */\n    tag_10:\n        /* \"#utility.yul\":307:311   */\n      0x00\n        /* \"#utility.yul\":345:347   */\n      0x20\n        /* \"#utility.yul\":334:343   */\n      dup3\n        /* \"#utility.yul\":330:348   */\n      add\n        /* \"#utility.yul\":322:348   */\n      swap1\n      pop\n        /* \"#utility.yul\":358:429   */\n      tag_56\n        /* \"#utility.yul\":426:427   */\n      0x00\n        /* \"#utility.yul\":415:424   */\n      dup4\n        /* \"#utility.yul\":411:428   */\n      add\n        /* \"#utility.yul\":402:408   */\n      dup5\n        /* \"#utility.yul\":358:429   */\n      tag_37\n      jump\t// in\n    tag_56:\n        /* \"#utility.yul\":214:436   */\n      swap3\n      swap2\n      pop\n      pop\n      jump\t// out\n        /* \"#utility.yul\":523:640   */\n    tag_39:\n        /* \"#utility.yul\":632:633   */\n      0x00\n        /* \"#utility.yul\":629:630   */\n      dup1\n        /* \"#utility.yul\":622:634   */\n      revert\n        /* \"#utility.yul\":769:895   */\n    tag_41:\n        /* \"#utility.yul\":806:813   */\n      0x00\n        /* \"#utility.yul\":846:888   */\n      0xffffffffffffffffffffffffffffffffffffffff\n        /* \"#utility.yul\":839:844   */\n      dup3\n        /* \"#utility.yul\":835:889   */\n      and\n        /* \"#utility.yul\":824:889   */\n      swap1\n      pop\n        /* \"#utility.yul\":769:895   */\n      swap2\n      swap1\n      pop\n      jump\t// out\n        /* \"#utility.yul\":901:997   */\n    tag_42:\n        /* \"#utility.yul\":938:945   */\n      0x00\n        /* \"#utility.yul\":967:991   */\n      tag_62\n        /* \"#utility.yul\":985:990   */\n      dup3\n        /* \"#utility.yul\":967:991   */\n      tag_41\n      jump\t// in\n    tag_62:\n        /* \"#utility.yul\":956:991   */\n      swap1\n      pop\n        /* \"#utility.yul\":901:997   */\n      swap2\n      swap1\n      pop\n      jump\t// out\n        /* \"#utility.yul\":1003:1125   */\n    tag_43:\n        /* \"#utility.yul\":1076:1100   */\n      tag_64\n        /* \"#utility.yul\":1094:1099   */\n      dup2\n        /* \"#utility.yul\":1076:1100   */\n      tag_42\n      jump\t// in\n    tag_64:\n        /* \"#utility.yul\":1069:1074   */\n      dup2\n        /* \"#utility.yul\":1066:1101   */\n      eq\n        /* \"#utility.yul\":1056:1119   */\n      tag_65\n      jumpi\n        /* \"#utility.yul\":1115:1116   */\n      0x00\n        /* \"#utility.yul\":1112:1113   */\n      dup1\n        /* \"#utility.yul\":1105:1117   */\n      revert\n        /* \"#utility.yul\":1056:1119   */\n    tag_65:\n        /* \"#utility.yul\":1003:1125   */\n      pop\n      jump\t// out\n        /* \"#utility.yul\":1131:1270   */\n    tag_44:\n        /* \"#utility.yul\":1177:1182   */\n      0x00\n        /* \"#utility.yul\":1215:1221   */\n      dup2\n        /* \"#utility.yul\":1202:1222   */\n      calldataload\n        /* \"#utility.yul\":1193:1222   */\n      swap1\n      pop\n        /* \"#utility.yul\":1231:1264   */\n      tag_67\n        /* \"#utility.yul\":1258:1263   */\n      dup2\n        /* \"#utility.yul\":1231:1264   */\n      tag_43\n      jump\t// in\n    tag_67:\n        /* \"#utility.yul\":1131:1270   */\n      swap3\n      swap2\n      pop\n      pop\n      jump\t// out\n        /* \"#utility.yul\":1276:1605   */\n    tag_14:\n        /* \"#utility.yul\":1335:1341   */\n      0x00\n        /* \"#utility.yul\":1384:1386   */\n      0x20\n        /* \"#utility.yul\":1372:1381   */\n      dup3\n        /* \"#utility.yul\":1363:1370   */\n      dup5\n        /* \"#utility.yul\":1359:1382   */\n      sub\n        /* \"#utility.yul\":1355:1387   */\n      slt\n        /* \"#utility.yul\":1352:1471   */\n      iszero\n      tag_69\n      jumpi\n        /* \"#utility.yul\":1390:1469   */\n      tag_70\n      tag_39\n      jump\t// in\n    tag_70:\n        /* \"#utility.yul\":1352:1471   */\n    tag_69:\n        /* \"#utility.yul\":1510:1511   */\n      0x00\n        /* \"#utility.yul\":1535:1588   */\n      tag_71\n        /* \"#utility.yul\":1580:1587   */\n      dup5\n        /* \"#utility.yul\":1571:1577   */\n      dup3\n        /* \"#utility.yul\":1560:1569   */\n      dup6\n        /* \"#utility.yul\":1556:1578   */\n      add\n        /* \"#utility.yul\":1535:1588   */\n      tag_44\n      jump\t// in\n    tag_71:\n        /* \"#utility.yul\":1525:1588   */\n      swap2\n      pop\n        /* \"#utility.yul\":1481:1598   */\n      pop\n        /* \"#utility.yul\":1276:1605   */\n      swap3\n      swap2\n      pop\n      pop\n      jump\t// out\n        /* \"#utility.yul\":1611:2053   */\n    tag_17:\n        /* \"#utility.yul\":1760:1764   */\n      0x00\n        /* \"#utility.yul\":1798:1800   */\n      0x60\n        /* \"#utility.yul\":1787:1796   */\n      dup3\n        /* \"#utility.yul\":1783:1801   */\n      add\n        /* \"#utility.yul\":1775:1801   */\n      swap1\n      pop\n        /* \"#utility.yul\":1811:1882   */\n      tag_73\n        /* \"#utility.yul\":1879:1880   */\n      0x00\n        /* \"#utility.yul\":1868:1877   */\n      dup4\n        /* \"#utility.yul\":1864:1881   */\n      add\n        /* \"#utility.yul\":1855:1861   */\n      dup7\n        /* \"#utility.yul\":1811:1882   */\n      tag_37\n      jump\t// in\n    tag_73:\n        /* \"#utility.yul\":1892:1964   */\n      tag_74\n        /* \"#utility.yul\":1960:1962   */\n      0x20\n        /* \"#utility.yul\":1949:1958   */\n      dup4\n        /* \"#utility.yul\":1945:1963   */\n      add\n        /* \"#utility.yul\":1936:1942   */\n      dup6\n        /* \"#utility.yul\":1892:1964   */\n      tag_37\n      jump\t// in\n    tag_74:\n        /* \"#utility.yul\":1974:2046   */\n      tag_75\n        /* \"#utility.yul\":2042:2044   */\n      0x40\n        /* \"#utility.yul\":2031:2040   */\n      dup4\n        /* \"#utility.yul\":2027:2045   */\n      add\n        /* \"#utility.yul\":2018:2024   */\n      dup5\n        /* \"#utility.yul\":1974:2046   */\n      tag_37\n      jump\t// in\n    tag_75:\n        /* \"#utility.yul\":1611:2053   */\n      swap5\n      swap4\n      pop\n      pop\n      pop\n      pop\n      jump\t// out\n        /* \"#utility.yul\":2059:2163   */\n    tag_45:\n        /* \"#utility.yul\":2104:2111   */\n      0x00\n        /* \"#utility.yul\":2133:2157   */\n      tag_77\n        /* \"#utility.yul\":2151:2156   */\n      dup3\n        /* \"#utility.yul\":2133:2157   */\n      tag_41\n      jump\t// in\n    tag_77:\n        /* \"#utility.yul\":2122:2157   */\n      swap1\n      pop\n        /* \"#utility.yul\":2059:2163   */\n      swap2\n      swap1\n      pop\n      jump\t// out\n        /* \"#utility.yul\":2169:2307   */\n    tag_46:\n        /* \"#utility.yul\":2250:2282   */\n      tag_79\n        /* \"#utility.yul\":2276:2281   */\n      dup2\n        /* \"#utility.yul\":2250:2282   */\n      tag_45\n      jump\t// in\n    tag_79:\n        /* \"#utility.yul\":2243:2248   */\n      dup2\n        /* \"#utility.yul\":2240:2283   */\n      eq\n        /* \"#utility.yul\":2230:2301   */\n      tag_80\n      jumpi\n        /* \"#utility.yul\":2297:2298   */\n      0x00\n        /* \"#utility.yul\":2294:2295   */\n      dup1\n        /* \"#utility.yul\":2287:2299   */\n      revert\n        /* \"#utility.yul\":2230:2301   */\n    tag_80:\n        /* \"#utility.yul\":2169:2307   */\n      pop\n      jump\t// out\n        /* \"#utility.yul\":2313:2468   */\n    tag_47:\n        /* \"#utility.yul\":2367:2372   */\n      0x00\n        /* \"#utility.yul\":2405:2411   */\n      dup2\n        /* \"#utility.yul\":2392:2412   */\n      calldataload\n        /* \"#utility.yul\":2383:2412   */\n      swap1\n      pop\n        /* \"#utility.yul\":2421:2462   */\n      tag_82\n        /* \"#utility.yul\":2456:2461   */\n      dup2\n        /* \"#utility.yul\":2421:2462   */\n      tag_46\n      jump\t// in\n    tag_82:\n        /* \"#utility.yul\":2313:2468   */\n      swap3\n      swap2\n      pop\n      pop\n      jump\t// out\n        /* \"#utility.yul\":2474:2596   */\n    tag_48:\n        /* \"#utility.yul\":2547:2571   */\n      tag_84\n        /* \"#utility.yul\":2565:2570   */\n      dup2\n        /* \"#utility.yul\":2547:2571   */\n      tag_36\n      jump\t// in\n    tag_84:\n        /* \"#utility.yul\":2540:2545   */\n      dup2\n        /* \"#utility.yul\":2537:2572   */\n      eq\n        /* \"#utility.yul\":2527:2590   */\n      tag_85\n      jumpi\n        /* \"#utility.yul\":2586:2587   */\n      0x00\n        /* \"#utility.yul\":2583:2584   */\n      dup1\n        /* \"#utility.yul\":2576:2588   */\n      revert\n        /* \"#utility.yul\":2527:2590   */\n    tag_85:\n        /* \"#utility.yul\":2474:2596   */\n      pop\n      jump\t// out\n        /* \"#utility.yul\":2602:2741   */\n    tag_49:\n        /* \"#utility.yul\":2648:2653   */\n      0x00\n        /* \"#utility.yul\":2686:2692   */\n      dup2\n        /* \"#utility.yul\":2673:2693   */\n      calldataload\n        /* \"#utility.yul\":2664:2693   */\n      swap1\n      pop\n        /* \"#utility.yul\":2702:2735   */\n      tag_87\n        /* \"#utility.yul\":2729:2734   */\n      dup2\n        /* \"#utility.yul\":2702:2735   */\n      tag_48\n      jump\t// in\n    tag_87:\n        /* \"#utility.yul\":2602:2741   */\n      swap3\n      swap2\n      pop\n      pop\n      jump\t// out\n        /* \"#utility.yul\":2747:3237   */\n    tag_22:\n        /* \"#utility.yul\":2823:2829   */\n      0x00\n        /* \"#utility.yul\":2831:2837   */\n      dup1\n        /* \"#utility.yul\":2880:2882   */\n      0x40\n        /* \"#utility.yul\":2868:2877   */\n      dup4\n        /* \"#utility.yul\":2859:2866   */\n      dup6\n        /* \"#utility.yul\":2855:2878   */\n      sub\n        /* \"#utility.yul\":2851:2883   */\n      slt\n        /* \"#utility.yul\":2848:2967   */\n      iszero\n      tag_89\n      jumpi\n        /* \"#utility.yul\":2886:2965   */\n      tag_90\n      tag_39\n      jump\t// in\n    tag_90:\n        /* \"#utility.yul\":2848:2967   */\n    tag_89:\n        /* \"#utility.yul\":3006:3007   */\n      0x00\n        /* \"#utility.yul\":3031:3092   */\n      tag_91\n        /* \"#utility.yul\":3084:3091   */\n      dup6\n        /* \"#utility.yul\":3075:3081   */\n      dup3\n        /* \"#utility.yul\":3064:3073   */\n      dup7\n        /* \"#utility.yul\":3060:3082   */\n      add\n        /* \"#utility.yul\":3031:3092   */\n      tag_47\n      jump\t// in\n    tag_91:\n        /* \"#utility.yul\":3021:3092   */\n      swap3\n      pop\n        /* \"#utility.yul\":2977:3102   */\n      pop\n        /* \"#utility.yul\":3141:3143   */\n      0x20\n        /* \"#utility.yul\":3167:3220   */\n      tag_92\n        /* \"#utility.yul\":3212:3219   */\n      dup6\n        /* \"#utility.yul\":3203:3209   */\n      dup3\n        /* \"#utility.yul\":3192:3201   */\n      dup7\n        /* \"#utility.yul\":3188:3210   */\n      add\n        /* \"#utility.yul\":3167:3220   */\n      tag_49\n      jump\t// in\n    tag_92:\n        /* \"#utility.yul\":3157:3220   */\n      swap2\n      pop\n        /* \"#utility.yul\":3112:3230   */\n      pop\n        /* \"#utility.yul\":2747:3237   */\n      swap3\n      pop\n      swap3\n      swap1\n      pop\n      jump\t// out\n        /* \"#utility.yul\":3243:3423   */\n    tag_50:\n        /* \"#utility.yul\":3291:3368   */\n      0x4e487b7100000000000000000000000000000000000000000000000000000000\n        /* \"#utility.yul\":3288:3289   */\n      0x00\n        /* \"#utility.yul\":3281:3369   */\n      mstore\n        /* \"#utility.yul\":3388:3392   */\n      0x11\n        /* \"#utility.yul\":3385:3386   */\n      0x04\n        /* \"#utility.yul\":3378:3393   */\n      mstore\n        /* \"#utility.yul\":3412:3416   */\n      0x24\n        /* \"#utility.yul\":3409:3410   */\n      0x00\n        /* \"#utility.yul\":3402:3417   */\n      revert\n        /* \"#utility.yul\":3429:3734   */\n    tag_27:\n        /* \"#utility.yul\":3469:3472   */\n      0x00\n        /* \"#utility.yul\":3488:3508   */\n      tag_95\n        /* \"#utility.yul\":3506:3507   */\n      dup3\n        /* \"#utility.yul\":3488:3508   */\n      tag_36\n      jump\t// in\n    tag_95:\n        /* \"#utility.yul\":3483:3508   */\n      swap2\n      pop\n        /* \"#utility.yul\":3522:3542   */\n      tag_96\n        /* \"#utility.yul\":3540:3541   */\n      dup4\n        /* \"#utility.yul\":3522:3542   */\n      tag_36\n      jump\t// in\n    tag_96:\n        /* \"#utility.yul\":3517:3542   */\n      swap3\n      pop\n        /* \"#utility.yul\":3676:3677   */\n      dup3\n        /* \"#utility.yul\":3608:3674   */\n      0xffffffffffffffffffffffffffffffffffffffffffffffffffffffffffffffff\n        /* \"#utility.yul\":3604:3678   */\n      sub\n        /* \"#utility.yul\":3601:3602   */\n      dup3\n        /* \"#utility.yul\":3598:3679   */\n      gt\n        /* \"#utility.yul\":3595:3702   */\n      iszero\n      tag_97\n      jumpi\n        /* \"#utility.yul\":3682:3700   */\n      tag_98\n      tag_50\n      jump\t// in\n    tag_98:\n        /* \"#utility.yul\":3595:3702   */\n    tag_97:\n        /* \"#utility.yul\":3726:3727   */\n      dup3\n        /* \"#utility.yul\":3723:3724   */\n      dup3\n        /* \"#utility.yul\":3719:3728   */\n      add\n        /* \"#utility.yul\":3712:3728   */\n      swap1\n      pop\n        /* \"#utility.yul\":3429:3734   */\n      swap3\n      swap2\n      pop\n      pop\n      jump\t// out\n        /* \"#utility.yul\":3740:3973   */\n    tag_29:\n        /* \"#utility.yul\":3779:3782   */\n      0x00\n        /* \"#utility.yul\":3802:3826   */\n      tag_100\n        /* \"#utility.yul\":3820:3825   */\n      dup3\n        /* \"#utility.yul\":3802:3826   */\n      tag_36\n      jump\t// in\n    tag_100:\n        /* \"#utility.yul\":3793:3826   */\n      swap2\n      pop\n        /* \"#utility.yul\":3848:3914   */\n      0xffffffffffffffffffffffffffffffffffffffffffffffffffffffffffffffff\n        /* \"#utility.yul\":3841:3846   */\n      dup3\n        /* \"#utility.yul\":3838:3915   */\n      sub\n        /* \"#utility.yul\":3835:3938   */\n      tag_101\n      jumpi\n        /* \"#utility.yul\":3918:3936   */\n      tag_102\n      tag_50\n      jump\t// in\n    tag_102:\n        /* \"#utility.yul\":3835:3938   */\n    tag_101:\n        /* \"#utility.yul\":3965:3966   */\n      0x01\n        /* \"#utility.yul\":3958:3963   */\n      dup3\n        /* \"#utility.yul\":3954:3967   */\n      add\n        /* \"#utility.yul\":3947:3967   */\n      swap1\n      pop\n        /* \"#utility.yul\":3740:3973   */\n      swap2\n      swap1\n      pop\n      jump\t// out\n        /* \"#utility.yul\":3979:4170   */\n    tag_32:\n        /* \"#utility.yul\":4019:4023   */\n      0x00\n        /* \"#utility.yul\":4039:4059   */\n      tag_104\n        /* \"#utility.yul\":4057:4058   */\n      dup3\n        /* \"#utility.yul\":4039:4059   */\n      tag_36\n      jump\t// in\n    tag_104:\n        /* \"#utility.yul\":4034:4059   */\n      swap2\n      pop\n        /* \"#utility.yul\":4073:4093   */\n      tag_105\n        /* \"#utility.yul\":4091:4092   */\n      dup4\n        /* \"#utility.yul\":4073:4093   */\n      tag_36\n      jump\t// in\n    tag_105:\n        /* \"#utility.yul\":4068:4093   */\n      swap3\n      pop\n        /* \"#utility.yul\":4112:4113   */\n      dup3\n        /* \"#utility.yul\":4109:4110   */\n      dup3\n        /* \"#utility.yul\":4106:4114   */\n      lt\n        /* \"#utility.yul\":4103:4137   */\n      iszero\n      tag_106\n      jumpi\n        /* \"#utility.yul\":4117:4135   */\n      tag_107\n      tag_50\n      jump\t// in\n    tag_107:\n        /* \"#utility.yul\":4103:4137   */\n    tag_106:\n        /* \"#utility.yul\":4162:4163   */\n      dup3\n        /* \"#utility.yul\":4159:4160   */\n      dup3\n        /* \"#utility.yul\":4155:4164   */\n      sub\n        /* \"#utility.yul\":4147:4164   */\n      swap1\n      pop\n        /* \"#utility.yul\":3979:4170   */\n      swap3\n      swap2\n      pop\n      pop\n      jump\t// out\n\n    auxdata: 0xa26469706673582212208aa8c95311d7bf5a65b3c1489f581448de4826268467ce427f5d857c31405f1364736f6c634300080f0033\n}\n",
				"bytecode": {
					"linkReferences": {},
					"object": "608060405234801561001057600080fd5b50610764806100206000396000f3fe60806040526004361061003f5760003560e01c806312065fe01461004457806391617ff51461006f578063d0e30db0146100ae578063f3fef3a3146100b8575b600080fd5b34801561005057600080fd5b506100596100d4565b60405161006691906104a1565b60405180910390f35b34801561007b57600080fd5b506100966004803603810190610091919061051f565b61011d565b6040516100a59392919061054c565b60405180910390f35b6100b6610147565b005b6100d260048036038101906100cd91906105ed565b6102c3565b005b60008060003373ffffffffffffffffffffffffffffffffffffffff1673ffffffffffffffffffffffffffffffffffffffff16815260200190815260200160002060000154905090565b60006020528060005260406000206000915090508060000154908060010154908060030154905083565b346000803373ffffffffffffffffffffffffffffffffffffffff1673ffffffffffffffffffffffffffffffffffffffff1681526020019081526020016000206000016000828254610198919061065c565b925050819055506000604051806040016040528034815260200142815250905060008060003373ffffffffffffffffffffffffffffffffffffffff1673ffffffffffffffffffffffffffffffffffffffff168152602001908152602001600020600101549050816000803373ffffffffffffffffffffffffffffffffffffffff1673ffffffffffffffffffffffffffffffffffffffff168152602001908152602001600020600201600083815260200190815260200160002060008201518160000155602082015181600101559050506000803373ffffffffffffffffffffffffffffffffffffffff1673ffffffffffffffffffffffffffffffffffffffff16815260200190815260200160002060010160008154809291906102ba906106b2565b91905055505050565b806000803373ffffffffffffffffffffffffffffffffffffffff1673ffffffffffffffffffffffffffffffffffffffff168152602001908152602001600020600001600082825461031491906106fa565b925050819055506000604051806040016040528034815260200142815250905060008060003373ffffffffffffffffffffffffffffffffffffffff1673ffffffffffffffffffffffffffffffffffffffff168152602001908152602001600020600301549050816000803373ffffffffffffffffffffffffffffffffffffffff1673ffffffffffffffffffffffffffffffffffffffff168152602001908152602001600020600201600083815260200190815260200160002060008201518160000155602082015181600101559050506000803373ffffffffffffffffffffffffffffffffffffffff1673ffffffffffffffffffffffffffffffffffffffff1681526020019081526020016000206003016000815480929190610436906106b2565b91905055508373ffffffffffffffffffffffffffffffffffffffff166108fc849081150290604051600060405180830381858888f19350505050158015610481573d6000803e3d6000fd5b5050505050565b6000819050919050565b61049b81610488565b82525050565b60006020820190506104b66000830184610492565b92915050565b600080fd5b600073ffffffffffffffffffffffffffffffffffffffff82169050919050565b60006104ec826104c1565b9050919050565b6104fc816104e1565b811461050757600080fd5b50565b600081359050610519816104f3565b92915050565b600060208284031215610535576105346104bc565b5b60006105438482850161050a565b91505092915050565b60006060820190506105616000830186610492565b61056e6020830185610492565b61057b6040830184610492565b949350505050565b600061058e826104c1565b9050919050565b61059e81610583565b81146105a957600080fd5b50565b6000813590506105bb81610595565b92915050565b6105ca81610488565b81146105d557600080fd5b50565b6000813590506105e7816105c1565b92915050565b60008060408385031215610604576106036104bc565b5b6000610612858286016105ac565b9250506020610623858286016105d8565b9150509250929050565b7f4e487b7100000000000000000000000000000000000000000000000000000000600052601160045260246000fd5b600061066782610488565b915061067283610488565b9250827fffffffffffffffffffffffffffffffffffffffffffffffffffffffffffffffff038211156106a7576106a661062d565b5b828201905092915050565b60006106bd82610488565b91507fffffffffffffffffffffffffffffffffffffffffffffffffffffffffffffffff82036106ef576106ee61062d565b5b600182019050919050565b600061070582610488565b915061071083610488565b9250828210156107235761072261062d565b5b82820390509291505056fea26469706673582212208aa8c95311d7bf5a65b3c1489f581448de4826268467ce427f5d857c31405f1364736f6c634300080f0033",
					"opcodes": "PUSH1 0x80 PUSH1 0x40 MSTORE CALLVALUE DUP1 ISZERO PUSH2 0x10 JUMPI PUSH1 0x0 DUP1 REVERT JUMPDEST POP PUSH2 0x764 DUP1 PUSH2 0x20 PUSH1 0x0 CODECOPY PUSH1 0x0 RETURN INVALID PUSH1 0x80 PUSH1 0x40 MSTORE PUSH1 0x4 CALLDATASIZE LT PUSH2 0x3F JUMPI PUSH1 0x0 CALLDATALOAD PUSH1 0xE0 SHR DUP1 PUSH4 0x12065FE0 EQ PUSH2 0x44 JUMPI DUP1 PUSH4 0x91617FF5 EQ PUSH2 0x6F JUMPI DUP1 PUSH4 0xD0E30DB0 EQ PUSH2 0xAE JUMPI DUP1 PUSH4 0xF3FEF3A3 EQ PUSH2 0xB8 JUMPI JUMPDEST PUSH1 0x0 DUP1 REVERT JUMPDEST CALLVALUE DUP1 ISZERO PUSH2 0x50 JUMPI PUSH1 0x0 DUP1 REVERT JUMPDEST POP PUSH2 0x59 PUSH2 0xD4 JUMP JUMPDEST PUSH1 0x40 MLOAD PUSH2 0x66 SWAP2 SWAP1 PUSH2 0x4A1 JUMP JUMPDEST PUSH1 0x40 MLOAD DUP1 SWAP2 SUB SWAP1 RETURN JUMPDEST CALLVALUE DUP1 ISZERO PUSH2 0x7B JUMPI PUSH1 0x0 DUP1 REVERT JUMPDEST POP PUSH2 0x96 PUSH1 0x4 DUP1 CALLDATASIZE SUB DUP2 ADD SWAP1 PUSH2 0x91 SWAP2 SWAP1 PUSH2 0x51F JUMP JUMPDEST PUSH2 0x11D JUMP JUMPDEST PUSH1 0x40 MLOAD PUSH2 0xA5 SWAP4 SWAP3 SWAP2 SWAP1 PUSH2 0x54C JUMP JUMPDEST PUSH1 0x40 MLOAD DUP1 SWAP2 SUB SWAP1 RETURN JUMPDEST PUSH2 0xB6 PUSH2 0x147 JUMP JUMPDEST STOP JUMPDEST PUSH2 0xD2 PUSH1 0x4 DUP1 CALLDATASIZE SUB DUP2 ADD SWAP1 PUSH2 0xCD SWAP2 SWAP1 PUSH2 0x5ED JUMP JUMPDEST PUSH2 0x2C3 JUMP JUMPDEST STOP JUMPDEST PUSH1 0x0 DUP1 PUSH1 0x0 CALLER PUSH20 0xFFFFFFFFFFFFFFFFFFFFFFFFFFFFFFFFFFFFFFFF AND PUSH20 0xFFFFFFFFFFFFFFFFFFFFFFFFFFFFFFFFFFFFFFFF AND DUP2 MSTORE PUSH1 0x20 ADD SWAP1 DUP2 MSTORE PUSH1 0x20 ADD PUSH1 0x0 KECCAK256 PUSH1 0x0 ADD SLOAD SWAP1 POP SWAP1 JUMP JUMPDEST PUSH1 0x0 PUSH1 0x20 MSTORE DUP1 PUSH1 0x0 MSTORE PUSH1 0x40 PUSH1 0x0 KECCAK256 PUSH1 0x0 SWAP2 POP SWAP1 POP DUP1 PUSH1 0x0 ADD SLOAD SWAP1 DUP1 PUSH1 0x1 ADD SLOAD SWAP1 DUP1 PUSH1 0x3 ADD SLOAD SWAP1 POP DUP4 JUMP JUMPDEST CALLVALUE PUSH1 0x0 DUP1 CALLER PUSH20 0xFFFFFFFFFFFFFFFFFFFFFFFFFFFFFFFFFFFFFFFF AND PUSH20 0xFFFFFFFFFFFFFFFFFFFFFFFFFFFFFFFFFFFFFFFF AND DUP2 MSTORE PUSH1 0x20 ADD SWAP1 DUP2 MSTORE PUSH1 0x20 ADD PUSH1 0x0 KECCAK256 PUSH1 0x0 ADD PUSH1 0x0 DUP3 DUP3 SLOAD PUSH2 0x198 SWAP2 SWAP1 PUSH2 0x65C JUMP JUMPDEST SWAP3 POP POP DUP2 SWAP1 SSTORE POP PUSH1 0x0 PUSH1 0x40 MLOAD DUP1 PUSH1 0x40 ADD PUSH1 0x40 MSTORE DUP1 CALLVALUE DUP2 MSTORE PUSH1 0x20 ADD TIMESTAMP DUP2 MSTORE POP SWAP1 POP PUSH1 0x0 DUP1 PUSH1 0x0 CALLER PUSH20 0xFFFFFFFFFFFFFFFFFFFFFFFFFFFFFFFFFFFFFFFF AND PUSH20 0xFFFFFFFFFFFFFFFFFFFFFFFFFFFFFFFFFFFFFFFF AND DUP2 MSTORE PUSH1 0x20 ADD SWAP1 DUP2 MSTORE PUSH1 0x20 ADD PUSH1 0x0 KECCAK256 PUSH1 0x1 ADD SLOAD SWAP1 POP DUP2 PUSH1 0x0 DUP1 CALLER PUSH20 0xFFFFFFFFFFFFFFFFFFFFFFFFFFFFFFFFFFFFFFFF AND PUSH20 0xFFFFFFFFFFFFFFFFFFFFFFFFFFFFFFFFFFFFFFFF AND DUP2 MSTORE PUSH1 0x20 ADD SWAP1 DUP2 MSTORE PUSH1 0x20 ADD PUSH1 0x0 KECCAK256 PUSH1 0x2 ADD PUSH1 0x0 DUP4 DUP2 MSTORE PUSH1 0x20 ADD SWAP1 DUP2 MSTORE PUSH1 0x20 ADD PUSH1 0x0 KECCAK256 PUSH1 0x0 DUP3 ADD MLOAD DUP2 PUSH1 0x0 ADD SSTORE PUSH1 0x20 DUP3 ADD MLOAD DUP2 PUSH1 0x1 ADD SSTORE SWAP1 POP POP PUSH1 0x0 DUP1 CALLER PUSH20 0xFFFFFFFFFFFFFFFFFFFFFFFFFFFFFFFFFFFFFFFF AND PUSH20 0xFFFFFFFFFFFFFFFFFFFFFFFFFFFFFFFFFFFFFFFF AND DUP2 MSTORE PUSH1 0x20 ADD SWAP1 DUP2 MSTORE PUSH1 0x20 ADD PUSH1 0x0 KECCAK256 PUSH1 0x1 ADD PUSH1 0x0 DUP2 SLOAD DUP1 SWAP3 SWAP2 SWAP1 PUSH2 0x2BA SWAP1 PUSH2 0x6B2 JUMP JUMPDEST SWAP2 SWAP1 POP SSTORE POP POP POP JUMP JUMPDEST DUP1 PUSH1 0x0 DUP1 CALLER PUSH20 0xFFFFFFFFFFFFFFFFFFFFFFFFFFFFFFFFFFFFFFFF AND PUSH20 0xFFFFFFFFFFFFFFFFFFFFFFFFFFFFFFFFFFFFFFFF AND DUP2 MSTORE PUSH1 0x20 ADD SWAP1 DUP2 MSTORE PUSH1 0x20 ADD PUSH1 0x0 KECCAK256 PUSH1 0x0 ADD PUSH1 0x0 DUP3 DUP3 SLOAD PUSH2 0x314 SWAP2 SWAP1 PUSH2 0x6FA JUMP JUMPDEST SWAP3 POP POP DUP2 SWAP1 SSTORE POP PUSH1 0x0 PUSH1 0x40 MLOAD DUP1 PUSH1 0x40 ADD PUSH1 0x40 MSTORE DUP1 CALLVALUE DUP2 MSTORE PUSH1 0x20 ADD TIMESTAMP DUP2 MSTORE POP SWAP1 POP PUSH1 0x0 DUP1 PUSH1 0x0 CALLER PUSH20 0xFFFFFFFFFFFFFFFFFFFFFFFFFFFFFFFFFFFFFFFF AND PUSH20 0xFFFFFFFFFFFFFFFFFFFFFFFFFFFFFFFFFFFFFFFF AND DUP2 MSTORE PUSH1 0x20 ADD SWAP1 DUP2 MSTORE PUSH1 0x20 ADD PUSH1 0x0 KECCAK256 PUSH1 0x3 ADD SLOAD SWAP1 POP DUP2 PUSH1 0x0 DUP1 CALLER PUSH20 0xFFFFFFFFFFFFFFFFFFFFFFFFFFFFFFFFFFFFFFFF AND PUSH20 0xFFFFFFFFFFFFFFFFFFFFFFFFFFFFFFFFFFFFFFFF AND DUP2 MSTORE PUSH1 0x20 ADD SWAP1 DUP2 MSTORE PUSH1 0x20 ADD PUSH1 0x0 KECCAK256 PUSH1 0x2 ADD PUSH1 0x0 DUP4 DUP2 MSTORE PUSH1 0x20 ADD SWAP1 DUP2 MSTORE PUSH1 0x20 ADD PUSH1 0x0 KECCAK256 PUSH1 0x0 DUP3 ADD MLOAD DUP2 PUSH1 0x0 ADD SSTORE PUSH1 0x20 DUP3 ADD MLOAD DUP2 PUSH1 0x1 ADD SSTORE SWAP1 POP POP PUSH1 0x0 DUP1 CALLER PUSH20 0xFFFFFFFFFFFFFFFFFFFFFFFFFFFFFFFFFFFFFFFF AND PUSH20 0xFFFFFFFFFFFFFFFFFFFFFFFFFFFFFFFFFFFFFFFF AND DUP2 MSTORE PUSH1 0x20 ADD SWAP1 DUP2 MSTORE PUSH1 0x20 ADD PUSH1 0x0 KECCAK256 PUSH1 0x3 ADD PUSH1 0x0 DUP2 SLOAD DUP1 SWAP3 SWAP2 SWAP1 PUSH2 0x436 SWAP1 PUSH2 0x6B2 JUMP JUMPDEST SWAP2 SWAP1 POP SSTORE POP DUP4 PUSH20 0xFFFFFFFFFFFFFFFFFFFFFFFFFFFFFFFFFFFFFFFF AND PUSH2 0x8FC DUP5 SWAP1 DUP2 ISZERO MUL SWAP1 PUSH1 0x40 MLOAD PUSH1 0x0 PUSH1 0x40 MLOAD DUP1 DUP4 SUB DUP2 DUP6 DUP9 DUP9 CALL SWAP4 POP POP POP POP ISZERO DUP1 ISZERO PUSH2 0x481 JUMPI RETURNDATASIZE PUSH1 0x0 DUP1 RETURNDATACOPY RETURNDATASIZE PUSH1 0x0 REVERT JUMPDEST POP POP POP POP POP JUMP JUMPDEST PUSH1 0x0 DUP2 SWAP1 POP SWAP2 SWAP1 POP JUMP JUMPDEST PUSH2 0x49B DUP2 PUSH2 0x488 JUMP JUMPDEST DUP3 MSTORE POP POP JUMP JUMPDEST PUSH1 0x0 PUSH1 0x20 DUP3 ADD SWAP1 POP PUSH2 0x4B6 PUSH1 0x0 DUP4 ADD DUP5 PUSH2 0x492 JUMP JUMPDEST SWAP3 SWAP2 POP POP JUMP JUMPDEST PUSH1 0x0 DUP1 REVERT JUMPDEST PUSH1 0x0 PUSH20 0xFFFFFFFFFFFFFFFFFFFFFFFFFFFFFFFFFFFFFFFF DUP3 AND SWAP1 POP SWAP2 SWAP1 POP JUMP JUMPDEST PUSH1 0x0 PUSH2 0x4EC DUP3 PUSH2 0x4C1 JUMP JUMPDEST SWAP1 POP SWAP2 SWAP1 POP JUMP JUMPDEST PUSH2 0x4FC DUP2 PUSH2 0x4E1 JUMP JUMPDEST DUP2 EQ PUSH2 0x507 JUMPI PUSH1 0x0 DUP1 REVERT JUMPDEST POP JUMP JUMPDEST PUSH1 0x0 DUP2 CALLDATALOAD SWAP1 POP PUSH2 0x519 DUP2 PUSH2 0x4F3 JUMP JUMPDEST SWAP3 SWAP2 POP POP JUMP JUMPDEST PUSH1 0x0 PUSH1 0x20 DUP3 DUP5 SUB SLT ISZERO PUSH2 0x535 JUMPI PUSH2 0x534 PUSH2 0x4BC JUMP JUMPDEST JUMPDEST PUSH1 0x0 PUSH2 0x543 DUP5 DUP3 DUP6 ADD PUSH2 0x50A JUMP JUMPDEST SWAP2 POP POP SWAP3 SWAP2 POP POP JUMP JUMPDEST PUSH1 0x0 PUSH1 0x60 DUP3 ADD SWAP1 POP PUSH2 0x561 PUSH1 0x0 DUP4 ADD DUP7 PUSH2 0x492 JUMP JUMPDEST PUSH2 0x56E PUSH1 0x20 DUP4 ADD DUP6 PUSH2 0x492 JUMP JUMPDEST PUSH2 0x57B PUSH1 0x40 DUP4 ADD DUP5 PUSH2 0x492 JUMP JUMPDEST SWAP5 SWAP4 POP POP POP POP JUMP JUMPDEST PUSH1 0x0 PUSH2 0x58E DUP3 PUSH2 0x4C1 JUMP JUMPDEST SWAP1 POP SWAP2 SWAP1 POP JUMP JUMPDEST PUSH2 0x59E DUP2 PUSH2 0x583 JUMP JUMPDEST DUP2 EQ PUSH2 0x5A9 JUMPI PUSH1 0x0 DUP1 REVERT JUMPDEST POP JUMP JUMPDEST PUSH1 0x0 DUP2 CALLDATALOAD SWAP1 POP PUSH2 0x5BB DUP2 PUSH2 0x595 JUMP JUMPDEST SWAP3 SWAP2 POP POP JUMP JUMPDEST PUSH2 0x5CA DUP2 PUSH2 0x488 JUMP JUMPDEST DUP2 EQ PUSH2 0x5D5 JUMPI PUSH1 0x0 DUP1 REVERT JUMPDEST POP JUMP JUMPDEST PUSH1 0x0 DUP2 CALLDATALOAD SWAP1 POP PUSH2 0x5E7 DUP2 PUSH2 0x5C1 JUMP JUMPDEST SWAP3 SWAP2 POP POP JUMP JUMPDEST PUSH1 0x0 DUP1 PUSH1 0x40 DUP4 DUP6 SUB SLT ISZERO PUSH2 0x604 JUMPI PUSH2 0x603 PUSH2 0x4BC JUMP JUMPDEST JUMPDEST PUSH1 0x0 PUSH2 0x612 DUP6 DUP3 DUP7 ADD PUSH2 0x5AC JUMP JUMPDEST SWAP3 POP POP PUSH1 0x20 PUSH2 0x623 DUP6 DUP3 DUP7 ADD PUSH2 0x5D8 JUMP JUMPDEST SWAP2 POP POP SWAP3 POP SWAP3 SWAP1 POP JUMP JUMPDEST PUSH32 0x4E487B7100000000000000000000000000000000000000000000000000000000 PUSH1 0x0 MSTORE PUSH1 0x11 PUSH1 0x4 MSTORE PUSH1 0x24 PUSH1 0x0 REVERT JUMPDEST PUSH1 0x0 PUSH2 0x667 DUP3 PUSH2 0x488 JUMP JUMPDEST SWAP2 POP PUSH2 0x672 DUP4 PUSH2 0x488 JUMP JUMPDEST SWAP3 POP DUP3 PUSH32 0xFFFFFFFFFFFFFFFFFFFFFFFFFFFFFFFFFFFFFFFFFFFFFFFFFFFFFFFFFFFFFFFF SUB DUP3 GT ISZERO PUSH2 0x6A7 JUMPI PUSH2 0x6A6 PUSH2 0x62D JUMP JUMPDEST JUMPDEST DUP3 DUP3 ADD SWAP1 POP SWAP3 SWAP2 POP POP JUMP JUMPDEST PUSH1 0x0 PUSH2 0x6BD DUP3 PUSH2 0x488 JUMP JUMPDEST SWAP2 POP PUSH32 0xFFFFFFFFFFFFFFFFFFFFFFFFFFFFFFFFFFFFFFFFFFFFFFFFFFFFFFFFFFFFFFFF DUP3 SUB PUSH2 0x6EF JUMPI PUSH2 0x6EE PUSH2 0x62D JUMP JUMPDEST JUMPDEST PUSH1 0x1 DUP3 ADD SWAP1 POP SWAP2 SWAP1 POP JUMP JUMPDEST PUSH1 0x0 PUSH2 0x705 DUP3 PUSH2 0x488 JUMP JUMPDEST SWAP2 POP PUSH2 0x710 DUP4 PUSH2 0x488 JUMP JUMPDEST SWAP3 POP DUP3 DUP3 LT ISZERO PUSH2 0x723 JUMPI PUSH2 0x722 PUSH2 0x62D JUMP JUMPDEST JUMPDEST DUP3 DUP3 SUB SWAP1 POP SWAP3 SWAP2 POP POP JUMP INVALID LOG2 PUSH5 0x6970667358 0x22 SLT KECCAK256 DUP11 0xA8 0xC9 MSTORE8 GT 0xD7 0xBF GAS PUSH6 0xB3C1489F5814 BASEFEE 0xDE BASEFEE 0x26 0x26 DUP5 PUSH8 0xCE427F5D857C3140 0x5F SGT PUSH5 0x736F6C6343 STOP ADDMOD 0xF STOP CALLER "
				},
				"gasEstimates": {
					"creation": {
						"codeDepositCost": "378400",
						"executionCost": "418",
						"totalCost": "378818"
					},
					"external": {
						"balanceLogs(address)": "infinite",
						"deposit()": "infinite",
						"getBalance()": "2510",
						"withdraw(address,uint256)": "infinite"
					}
				},
				"methodIdentifiers": {
					"balanceLogs(address)": "91617ff5",
					"deposit()": "d0e30db0",
					"getBalance()": "12065fe0",
					"withdraw(address,uint256)": "f3fef3a3"
				}
			},
			"storageLayout": {
				"storage": [
					{
						"astId": 28,
						"contract": "contracts/StructMappingExample.sol:StractMappingExample",
						"label": "balanceLogs",
						"offset": 0,
						"slot": "0",
						"type": "t_mapping(t_address,t_struct(BalanceInfo)23_storage)"
					}
				],
				"types": {
					"t_address": {
						"encoding": "inplace",
						"label": "address",
						"numberOfBytes": "20"
					},
					"t_mapping(t_address,t_struct(BalanceInfo)23_storage)": {
						"encoding": "mapping",
						"key": "t_address",
						"label": "mapping(address => struct StractMappingExample.BalanceInfo)",
						"numberOfBytes": "32",
						"value": "t_struct(BalanceInfo)23_storage"
					},
					"t_mapping(t_uint256,t_struct(Transaction)6_storage)": {
						"encoding": "mapping",
						"key": "t_uint256",
						"label": "mapping(uint256 => struct StractMappingExample.Transaction)",
						"numberOfBytes": "32",
						"value": "t_struct(Transaction)6_storage"
					},
					"t_struct(BalanceInfo)23_storage": {
						"encoding": "inplace",
						"label": "struct StractMappingExample.BalanceInfo",
						"members": [
							{
								"astId": 8,
								"contract": "contracts/StructMappingExample.sol:StractMappingExample",
								"label": "totalBalance",
								"offset": 0,
								"slot": "0",
								"type": "t_uint256"
							},
							{
								"astId": 10,
								"contract": "contracts/StructMappingExample.sol:StractMappingExample",
								"label": "depositIdx",
								"offset": 0,
								"slot": "1",
								"type": "t_uint256"
							},
							{
								"astId": 15,
								"contract": "contracts/StructMappingExample.sol:StractMappingExample",
								"label": "depositLogs",
								"offset": 0,
								"slot": "2",
								"type": "t_mapping(t_uint256,t_struct(Transaction)6_storage)"
							},
							{
								"astId": 17,
								"contract": "contracts/StructMappingExample.sol:StractMappingExample",
								"label": "withdrawalIdx",
								"offset": 0,
								"slot": "3",
								"type": "t_uint256"
							},
							{
								"astId": 22,
								"contract": "contracts/StructMappingExample.sol:StractMappingExample",
								"label": "withdrawLogs",
								"offset": 0,
								"slot": "4",
								"type": "t_mapping(t_uint256,t_struct(Transaction)6_storage)"
							}
						],
						"numberOfBytes": "160"
					},
					"t_struct(Transaction)6_storage": {
						"encoding": "inplace",
						"label": "struct StractMappingExample.Transaction",
						"members": [
							{
								"astId": 3,
								"contract": "contracts/StructMappingExample.sol:StractMappingExample",
								"label": "amount",
								"offset": 0,
								"slot": "0",
								"type": "t_uint256"
							},
							{
								"astId": 5,
								"contract": "contracts/StructMappingExample.sol:StractMappingExample",
								"label": "timestamp",
								"offset": 0,
								"slot": "1",
								"type": "t_uint256"
							}
						],
						"numberOfBytes": "64"
					},
					"t_uint256": {
						"encoding": "inplace",
						"label": "uint256",
						"numberOfBytes": "32"
					}
				}
			},
			"userdoc": {
				"kind": "user",
				"methods": {},
				"version": 1
			}
		}
	}
}